:020000040800F2
:1000000070080020E5010008A9300008D32F00087F
:10001000A530000839130008293800080000000046
:10002000000000000000000000000000D5300008C3
:100030003D13000800000000AB3000082D3100081F
:10004000FF010008FF010008FF010008FF01000890
:10005000FF010008FF010008FF010008FF01000880
:10006000FF010008FF010008FF010008FF01000870
:10007000FF010008FF010008FF010008FF01000860
:10008000FF010008FF010008FF010008FF01000850
:10009000FF010008FF010008FF010008FF01000840
:1000A000FF010008FF010008FF010008FF01000830
:1000B000FF010008FF010008FF010008FF01000820
:1000C000FF010008FF010008FF010008FF01000810
:1000D000FF010008E9370008FF010008FF010008E0
:1000E000FF010008FF010008FF010008FF010008F0
:1000F000FF010008FF010008FF010008FF010008E0
:10010000FF010008FF010008FF010008FF010008CF
:10011000FF010008FF010008FF010008FF010008BF
:10012000FF010008FF010008FF010008FF010008AF
:1001300000F002F800F047F80AA090E8000C8244B2
:100140008344AAF10107DA4501D100F03CF8AFF28F
:10015000090EBAE80F0013F0010F18BFFB1A43F0A5
:10016000010318476449000084490000103A24BF85
:1001700078C878C1FAD8520724BF30C830C144BF0C
:1001800004680C607047000000230024002500264E
:10019000103A28BF78C1FBD8520728BF30C148BFEA
:1001A0000B607047662904F03684002070471FB545
:1001B00000F018FB04000020002103F02FFDE06098
:1001C0001FBD10B510BD00F025FC1146FFF7EFFF75
:1001D00003F0A4FB00F043FC03B4FFF7F2FF03BC01
:1001E00003F05BFB0948804709480047FEE7FEE74C
:1001F000FEE7FEE7FEE7FEE7FEE7FEE7FEE7FEE7D7
:1002000004480549054A064B704700009D31000827
:1002100031010008700200207008002070040020E6
:1002200070040020704700000FB4044910B503AA01
:10023000029800F0C5FA10BC5DF814FB1400002011
:100240002DE9F0474FF0000A89460446C0F820A087
:100250002046E1688847002876D0252806D0D4E9D2
:1002600001219047206A401C2062F1E7E1682046A6
:1002700000258847C4F81CA006460027C4F818A02B
:100280002A2E09D0304603F001FB38B304EB87086F
:10029000303EC8F8186019E059F8041B204604EBFA
:1002A00087029161E1688847012F064618D1E0690D
:1002B000002820DA25F020051DE0D8F8180000EB12
:1002C000800006EB40003038C8F818002046E1688E
:1002D0008847064603F0DAFA0028EED1012F0AD04B
:1002E0002E2E08D12046E16888477F1C0646022F43
:1002F00045F02005C4DBA069002803DA404245F040
:100300000105A061E80701D025F01005B6B1A6F1FE
:100310004100192802D8203645F400654A46314686
:10032000204625604D46FFF73DFF58B1012806D015
:10033000ED1D25F0070000F1080989E704E005F14B
:10034000040985E730468AE7206ABDE8F0874FF068
:10035000000200B5134694469646203922BFA0E815
:100360000C50A0E80C50B1F12001BFF4F7AF090721
:1003700028BFA0E80C5048BF0CC05DF804EB890012
:1003800028BF40F8042B08BF704748BF20F8022B55
:1003900011F0804F18BF00F8012B7047704770476D
:1003A0007047704770472DE9FF4F0C461E464FF0CF
:1003B000FF378BB0D2E90001DDF860800A908A46F1
:1003C000C1F30A5505B93D46002108464FF000002B
:1003D000BAF1000F00F4400005DA00EB80004FF4A2
:1003E000400101EA50004FEA9059B9F1010F00DDD8
:1003F000B9460A9850EA4A000ED044F61050A5F2C9
:10040000FF3545432F14B8F1000F1ED07542291E49
:100410001EDDC9F100021CE0B8F1010F4FF0000031
:1004200001D0302103E0F24305E02154401CB042EA
:10043000FBDB30460022002121540B99C1F80880D3
:10044000C1E900200FB0BDE8F08FBD1B6D1CDEE7D9
:100450004A4600DA694206A800F066FA06AB93E85D
:10046000070003AB83E8070050460A9900F03EFB03
:100470008DE80700A0F500501F3800900398002D6C
:1004800009DD42F21F014A46084403A90390684669
:1004900000F09DFD08E0A0F500504A461F3803A972
:1004A0000390684600F0A7FD8DE807000004000CEB
:1004B00003D04FF0FF30410800E01046B8F1000FC4
:1004C00003D00022009215461EE0751E05D400F0F0
:1004D0008DF9303262556D1EF9D5B34601220843BD
:1004E00002D000227F1C04E02078302801D10022B5
:1004F0007F1E002A099786D01DE0112D07DA00F033
:1005000075F9303262556D1C50EA0102F5D108438D
:1005100002D00098C8B10EE00021681E05E0235CFF
:10052000625C63542254401E491C8142F7DBAB4697
:10053000A81B401E0990002004F80B000B98099A94
:10054000C0F80880C0E9002B7CE711264FF00008B6
:1005500059E72DE9F04F88460446D21D22F00701E5
:1005600091B0D1E90001CDE90A0103F05FF902463B
:100570000B98C00F01D02D2007E02068810701D51E
:100580002B2002E0202101EAC000032A099001D0BB
:10059000072A05DB03464146204600F085F90BE1BA
:1005A0002078800601D5E06900E00620B8F1650FEB
:1005B000814606D0B8F1660F18D0B8F1670F70D138
:1005C00031E00020B9F1110F009001DB112301E0AF
:1005D00009F101030AAA01A90CA8FFF7E4FEDDE96D
:1005E0000C70002609F10105834647E001204B46C7
:1005F00000904FF000470AAA01A90CA8FFF7D3FE0C
:10060000DDE90DB00C995D46002610B909F1010035
:100610000D18B9EB050003D4C0F1FF3609F101054F
:10062000A5EB09002BE0B9F1010F01DA4FF0010948
:100630000020B9F1110F0090484601DD112300E0C0
:1006400003460AAA01A90CA8FFF7ADFEDDE90C706C
:100650004D4600268346207800070AD4AB4500DAD1
:100660005D4601A8012D04DD411911F8011C302956
:1006700007D04F4502DA17F1040F04DA0120824651
:100680000FE06D1EEEE7002F02DCED1B3E4403E0A1
:10069000781CA84200DD7D1CB81B00F1010A4FF058
:1006A00000472078000703D4AA4501DB4FF0FF3A4A
:1006B0000021B7F1004F0DF143088DF8431024D00D
:1006C00002202B23002F01DA7F422D230A21021E54
:1006D000A0F1010000DC5FB197FBF1FC97FBF1F2A8
:1006E00001FB1C7C17460CF1300C08F801CDEEE73D
:1006F000A8F1010003702188090501D5452100E01A
:100700006521A0F1010800F8011C09980FA9A1EBCF
:100710000807FF1D00B10120411901EBEA70A16932
:100720003844081A401EA0612078C00602D4204632
:10073000AFF30080099828B1D4E901219047206ADD
:10074000401C20622078C00622D52046AFF30080EE
:100750001EE0002E04DBB34502DD01A8805D00E051
:100760003020D4E901219047206A401C2062761C89
:10077000AAF101005FEA000A0AD100F033F8C0686C
:100780000168405CD4E901219047206A401C206246
:10079000281EA5F10105DCDC07E0D4E9012118F8E9
:1007A000010B9047206A401C2062381EA7F1010708
:1007B000F3DC2046AFF30080032011B043E60000D5
:1007C000074B70B50D467B4400F05BF804462846A5
:1007D00000F018F910B14FF0FF3070BD204670BD29
:1007E00037310000004870473002002030B5B0F1CA
:1007F0000A024FEA900E71F100034EEA817EB0EBDF
:100800000E0061EB91014FEA101E4EEA017E10EBE3
:100810000E0041EB11114FEA102E4EEA016E10EB63
:100820000E0041EB11214FEA104E4EEA014E10EB43
:100830000E0041EB1141401841F100014FEAD00098
:1008400040EA41704FEAD10110EB80054FEA810484
:1008500044EA907444EB01046D1944EB0404521B08
:10086000A3414FF0000348BF0A3200D530BD401C01
:1008700041F1000130BD000001694A1C02610878A5
:10088000704700B58FB0CDE90131002105910549D0
:100890007944CDE9031011466846FFF7D1FC0FB04B
:1008A00000BD0000E5FFFFFF2DE9F0411F460446B3
:1008B00003260168072A01F4006004DB08B116A5CD
:1008C00005E016A503E008B115A500E015A521F087
:1008D00010002060A069C01EA0610FB1401EA06181
:1008E0002046AFF300804FB1D4E90121384690474C
:1008F000206A401C2062C01C206206E0206AFAE7E1
:10090000D4E9012115F8010B9047761EF8D2204654
:10091000AFF30080BDE8F0814E414E006E616E0085
:10092000494E4600696E66002DE9F047814616463D
:100930008AB0334878440DC88DE80D0030487844BB
:10094000801C03AC0DC884E80D0041F69B300844C0
:10095000372190FBF1F290FBF1F5A5F1800501FB49
:1009600012041B3C02D56442012000E00020DFF8A5
:1009700090A080460027FA44AAF1BE0A0DE0E007E5
:1009800009D03246684607EB47010AEB810100F0C7
:1009900032FB8DE8070064107F1C002CEFD1184F4C
:1009A0007F44AC3F18E0E80714D007EB04100DF1CA
:1009B000180A90E80E008AE80E00C068F04201D1E3
:1009C00098190890324606A903A800F014FB03AB5F
:1009D00083E807006D10641C002DE4D1324669469F
:1009E000B8F1000F03A802D000F0F1FA01E000F026
:1009F00002FBC9E90001C9F808200AB0BDE8F08788
:100A000078410000007B00F080007047004870478C
:100A1000100200207546FFF7F9FFAE460500694653
:100A2000534620F00700854618B020B5FFF7E8FBD5
:100A3000BDE820404FF000064FF000074FF00008DF
:100A40004FF0000B21F00701AC46ACE8C009ACE860
:100A5000C009ACE8C009ACE8C0098D46704704463F
:100A6000AFF300802046FFF7B7FB00004FF0013CDA
:100A700050F8042B51F8043B9A4221D1A2EB0C030D
:100A8000934313EACC1317D150F8042B51F8043BCD
:100A90009A4215D1A2EB0C03934313EACC130BD16A
:100AA00050F8042B51F8043B9A4209D1A2EB0C03F5
:100AB000934313EACC13DBD04FF00000704700BF24
:100AC000D01A01BAB1FA81F101F0180122FA01F04D
:100AD000CB40C1F12001DBB2C0B2C01A2CFA01F345
:100AE000D11A914311EAC311E6D170475FEA400C75
:100AF00008BF91F0000F4FEA8C234FEAC12243EA6E
:100B000051514FEA1C5018BF00F5F0404FEA300039
:100B100018BF41F000415FEA6C5C00F02980BCF135
:100B2000FF3F08BF40F080407047130C06BF12041F
:100B30004FF0100C4FF0000C130E04BF12020CF11A
:100B4000080C130F04BF12010CF1040C930F04BF27
:100B500092000CF1020CD30F04BF52000CF1010CF7
:100B600011464FF00002A0F11F00A0EB0C007047EF
:100B700011F0004F08BF704731F000413FF4D5AF8E
:100B80000B0C06BF09044FF0100C4FF0000C0B0EBD
:100B900004BF09020CF1080C0B0F04BF09010CF192
:100BA000040C8B0F04BF89000CF1020CCB0F04BFA7
:100BB00049000CF1010CCCF12003A0EB0C0022FA4F
:100BC00003F302FA0CF241EA030100F1010070475D
:100BD00020F07F4C80EA030023F07F47ACEB070353
:100BE00003F57C5300F0004003F1FF032DE9804939
:100BF0004FEA154B09B44FEA144325EA0B4E24EA99
:100C000003480FF2042606EB132749083E785FEAF3
:100C1000320203FB0667C7F5000707FB06F64FEA3B
:100C200054374FEAD64606F1020607FB066CCCF1B4
:100C3000005C4FEA1C472CEA074C07FB06F40CFB50
:100C400006F504EB15464FEA961634BF00204FF028
:100C500000404FEAD13706FB07FC4FEA1C4C0CFB67
:100C60000BF7D21B03FB0CF761EB07010CFB0EF734
:100C7000B0EB074072EB17420CFB08F734BFA2EB56
:100C80000742B2EB074261EB17414FEA0C444FEACF
:100C9000910706FB07FC4FEA1C4C0CFB0BF7B0EB73
:100CA000C74072EB573203FB0CF734BFA2EBC742CD
:100CB000B2EBC74261EB57310CFB0EF7B0EBC7004C
:100CC00072EB57720CFB08F734BFA2EBC702B2EB12
:100CD000C70261EB5771039F4FEA816141EA9211AC
:100CE00004EBCC044FEAD1374FEA826206FB07FCE3
:100CF00042EA90124FEA80604FEA1C4C0CFB0BF763
:100D0000D21B03FB0CF761EB07010CFB0EF7B0EBFA
:100D1000074072EB17420CFB08F734BFA2EB074207
:100D2000B2EB074261EB17414FEA8C554FEA91074E
:100D300004EB9C2406FB07FC4FEA1C4C0CFB0BF756
:100D4000B0EBC74072EB573203FB0CF734BFA2EB9A
:100D5000C742B2EBC74261EB57310CFB0EF7B0EB69
:100D6000C70072EB57720CFB08F734BFA2EBC70247
:100D7000B2EBC70261EB577115EB4C254FEA81616D
:100D800041EA92114FEA82624FEAD13742EA901269
:100D900006FB07FC44F100044FEA80604FEA1C4C5C
:100DA0000CFB0BF7D21B03FB0CF761EB07010CFBF1
:100DB0000EF7B0EB074072EB17420CFB08F734BF9D
:100DC000A2EB0742B2EB074261EB174115EB1C1592
:100DD0004FEA813141EA92414FEA823242EA90423F
:100DE0004FEA80304FEA0C7644F1000448EA0343AE
:100DF0004EEA0B484FF0000EB2EB080C71EB030704
:100E000024BF624639464EEB0E0E4FF0000B001821
:100E1000524149414BEB0B0BB2EB080C71EB030752
:100E20007BF1000B24BF624639464EEB0E0E4FF0AD
:100E3000000B0018524149414BEB0B0BB2EB080C75
:100E400071EB03077BF1000B24BF624639464EEB82
:100E50000E0E51EA020718BF46F0010616EB0E7699
:100E600055F1000254F1000103D5BDE88901BDE848
:100E70000088BDE88901BDE80048B619524141EB40
:100E80000101A3F10103704780807F7E7D7C7B7A26
:100E90007978777676757473727171706F6E6E6D26
:100EA0006C6C6B6A6A6968686766666564646363CC
:100EB00062616160605F5F5E5E5D5D5C5C5B5B5A52
:100EC0005A595958585757565655555554545353BF
:100ED00052525251515050504F4F4F4E4E4D4D4D1A
:100EE0004C4C4C4B4B4B4A4A4A4949494848484765
:100EF00047474746464645454544444444434343A3
:100F00004342424242414141002B26D4770021D046
:100F10001CB54FEA370703B44FF010004FF0100133
:100F20004FF000000FBCBDE810400BF1010BBBF10E
:100F3000010F08BF5FEA170722BF12F1010211F18A
:100F400001014FF0004143F1000300F0004043EA8B
:100F500000007047F9D35708DAE746EA064613F16E
:100F6000400F4FEA16461FDD13F1200FDFBF164377
:100F70000A46002120335B42C8D0C3F1200746EA6D
:100F8000064602FA07F74FEA164646EA0706C3F195
:100F9000200722FA03F201FA07F721FA03F14FF0D2
:100FA000000342EA0702B1E746EA020646EA0646BD
:100FB0004FEA164646EA0106BCBF46EA0646360C2C
:100FC0004FF000034FF000024FF000019EE72DE9C3
:100FD000C048934630B491E8380007C831EA400C65
:100FE00048BF34EA430C03D5FFF7F2FDFFF78CFF4F
:100FF000F0BCBDE800882DE9C048934630B491E8C4
:10100000380007C810F0804F08BF13F0804F03D19D
:1010100000F005F8FFF778FFF0BCBDE8008820F08D
:101020007F4780EA030023F07F4C07EB0C03A3F516
:101030007C5300F00040A3F1FE0392F0000F00F09B
:10104000B38095F0000F00F077802DE901494FEA59
:1010500011404FEA144621EA004800FB06FC24EA4E
:10106000064708FB06F607FB08F800FB07F718EB36
:1010700006484CEB164C4FEA124B18EB07484FEA68
:1010800015464CEB174022EA0B4E0BFB06FC25EAFB
:1010900006470EFB06F607FB0EFE0BFB07F71EEBE3
:1010A000064E4CEB164C4FF000061EEB074E4CEB79
:1010B000174B18EB0B0840F1000018EB0E0B58EB28
:1010C000000840F100008F1A4FF000013CBFC943F7
:1010D000661B14BFB5EB040C00213CBFC943F61BD3
:1010E0004FEA17444EEA8E0E27EA04454FEA1C47A2
:1010F00004FB07622CEA074C05FB07F70CFB05F61F
:1011000004FB0CFC16EB074642EB174216EB0C46B1
:1011100042EB1C421BEB060658EB0202414146EA39
:101120009E0601D5BDE80189B619524141EB010186
:10113000A3F10103BDE801894FEA14454FEA1147C5
:1011400024EA054621EA074C05FB07F406FB07F7EE
:101150000CFB06F105FB0CFC11EB074144EB1744BB
:101160004FEA124711EB0C4144EB1C4422EA074CB6
:1011700005FB07F206FB07F70CFB06F605FB0CFC6C
:1011800016EB074642EB174216EB0C4642EB1C45AA
:101190006A1854F1000148BF7047B619524141EB3B
:1011A0000101A3F10103704795F0000F37D04FEA1A
:1011B00011424FEA144721EA024624EA074C02FB97
:1011C00007F106FB07F70CFB06F402FB0CFC14EB23
:1011D000074441EB17414FEA154714EB0C4441EB30
:1011E0001C4125EA074C02FB07F506FB07F70CFB41
:1011F00006F602FB0CFC16EB074645EB174516EB13
:101200000C4645EB1C42121951F1000148BF7047D2
:10121000B619524141EB0101A3F1010370474FEAB6
:1012200014454FEA114724EA054621EA074C05FB1D
:1012300007F106FB07F70CFB06F24FF0000605FB73
:101240000CFC12EB074241EB174112EB0C4251EB45
:101250001C4148BF7047921841EB0101A3F1010303
:10126000704770B5044600252068806800F00100D2
:10127000F0B12068806820F001002168886000F0EB
:101280007BFE05460EE000F077FE401B022809D9E0
:10129000A06A40F01000A062E06A40F00100E06245
:1012A000012070BD2068806800F001000028EAD1AC
:1012B0000020F6E738B5044600250020009020689D
:1012C000806800F0010080BB2068806840F0010069
:1012D00021688860164800681649B0FBF1F000905C
:1012E00002E00098401E009000980028F9D100F01C
:1012F00043FE054613E000F03FFE401B02280ED9D6
:10130000A06A40F01000A062E06A40F00100E062D4
:1013100000BF002084F8240000BF012038BD2068F1
:10132000806800F001000028E5D00020F6E700000A
:101330000000002040420F0000BFFEE770470000A1
:1013400072B602A0FEF770FF00BFFEE74552524F93
:101350005221210D0A0000003EB5044600940120F0
:101360000190072002906946074800F0A9F8064856
:1013700000F0F0FA0A21044800F034FA024800F0C4
:101380004FF980B23EBD0000840100202DE9F041FC
:1013900007460C460025002608E03846FFF7DCFF2C
:1013A0000544052002F07BFA701CC6B2A642F4DBAD
:1013B000B5FBF4F080B2BDE8F0810000F8B504465A
:1013C00000260020009000BF94F82400012801D1DD
:1013D0000220F8BD012084F8240000BF2046FFF75A
:1013E00040FF0646002E62D1A06A20F4885040F0EB
:1013F0000200A062022000F06FFE30490968B1FBD4
:10140000F0F04000009002E00098401E009000982C
:101410000028F9D12046FFF74DFF2068806840F092
:1014200008002168886000F0A7FD054611E000F083
:10143000A3FD401B0A280CD9A06A20F0020040F04E
:101440001000A06200BF002084F8240000BF01202B
:10145000BFE72068806800F008000028E7D1206816
:10146000806840F004002168886000F085FD054632
:1014700011E000F081FD401B0A280CD9A06A20F081
:10148000020040F01000A06200BF002084F8240099
:1014900000BF01209DE72068806800F0040000285C
:1014A000E7D1A06A20F0020040F00100A06200BF76
:1014B000002084F8240000BF30468AE700000020A6
:1014C00038B5024600230020009000BF92F82400A7
:1014D000012801D1022038BD012082F8240000BF7C
:1014E0004868072812D21068406B0C79641E04EB20
:1014F00084051F24AC40A0430D796D1E05EB8505C6
:101500000C68AC4020431468606327E048680D28ED
:1015100012D21068006B0C79E41F04EB84051F24C1
:10152000AC40A0430D79ED1F05EB85050C68AC4080
:1015300020431468206311E01068C06A0C790D3CE8
:1015400004EB84051F24AC40A0430D790D3D05EB51
:1015500085050C68AC4020431468E06208680A28DE
:1015600012D31068C0680C780A3C04EB44050724C9
:10157000AC40A0430D780A3D05EB45058C68AC40B6
:1015800020431468E0600FE0106800690C7804EBF9
:1015900044050724AC40A0430D7805EB45058C6855
:1015A000AC402043146820610868102802D0086805
:1015B000112827D1174C1068A0421ED110688068EE
:1015C00000F40000F0B91068806840F4000014686E
:1015D000A0600868102815D10F4800680F4CB0FBB8
:1015E000F4F000EB80004000009002E00098401E04
:1015F000009000980028F9D104E0906A40F02000A3
:101600009062012300BF002082F8240000BF18462A
:1016100061E70000002401400000002040420F006C
:1016200001460868C06C70472DE9F0410446002768
:1016300000250026A84614B90120BDE8F081A06865
:1016400010B1207D00B100BFA06A30B90020E06277
:1016500084F82400204600F097F82046FFF701FEAA
:101660000746A06A00F01000002873D1002F7ED139
:10167000A06A20F4885040F00200A0623F4AD4E9FA
:101680000001904208D1E069B0F5402F02D14FF43B
:10169000002002E0E06900E0E0690143207B41EACC
:1016A00040000643A068B0F5807F02D0A068012802
:1016B00002D14FF4807000E000200543207D012816
:1016C00011D1207B38B9A069401E4FF4006141EA76
:1016D0004030054307E0A06A40F02000A062E06AC5
:1016E00040F00100E0622068406820F4694028432F
:1016F000216848602068806821490840304321689B
:101700008860A068B0F5807F02D0A068012802D16F
:101710004FF4807000E00020B0F5807F03D1208A74
:10172000401E4FEA00582068C06A20F4700040EA6A
:1017300008002168C8622068806812490840B042E9
:1017400009D10020E062A06A20F0020040F0010010
:10175000A06211E00BE0A06A20F0020040F010004F
:10176000A062E06A40F00100E062012704E0A06AA4
:1017700040F01000A062012738465EE7003C0140BF
:10178000FDF7E1FFFE0E1FFF10B586B0044600BF57
:101790001248806940F400701049886108468069E9
:1017A00000F40070019000BF00BF00BF08468069D0
:1017B00040F0040088610846806900F00400019050
:1017C00000BF00BF0220029003200390002004907D
:1017D00002A9034800F02AFA06B010BD001002402A
:1017E00000080140F8B504460D4600260020009090
:1017F000002700F0C1FB06462068806800F4807076
:1018000050B1A06A40F02000A06200BF002084F820
:10181000240000BF0120F8BD2068406800F48070FB
:10182000F8B92068C06A00F47000D0B912E0681CF2
:1018300080B125B100F0A0FB801BA8420AD9A06AA4
:1018400040F00400A06200BF002084F8240000BF24
:101850000320E0E72068006800F002000028E6D0DE
:1018600050E0022000F038FC36490968B1FBF0F086
:1018700021680969344A114091B92168C9689211F7
:10188000114069B921680969304A114031B92168AC
:10189000C9689211114009B9142117E0292115E0F6
:1018A00021680969294A114021B92168C968921142
:1018B000114041B121680969254A114029B92168BF
:1018C000C968114009B9542100E0FC2100FB01F76F
:1018D00015E0681C80B125B100F04EFB801BA842CA
:1018E0000AD9A06A40F00400A06200BF002084F87A
:1018F000240000BF03208EE70098401C0090009851
:10190000B842E6D36FF0120021680860A06A40F484
:101910000070A0622068806800F46020B0F5602F3D
:101920000DD1207B58B9A06A20F48070A062A06A13
:1019300000F4805018B9A06A40F00100A0620020B5
:1019400069E70000000000202449922492244912F3
:101950004992240070B50446002500BF94F8240085
:10196000012801D1022070BD012084F8240000BFAD
:101970002046FFF79FFC0546002D77D1A06A40F274
:101980000121884340F48070A0623C49206888426D
:1019900008D13B48006800F4702008B9012002E03B
:1019A000002000E0012078B1A06A20F48010A0623D
:1019B0002068406800F4806000B3A06A20F4005002
:1019C00040F48050A06219E0A06A40F48010A06248
:1019D0002B49091F2068884203D028492068884283
:1019E00004D12748006800F4806000E0002028B19E
:1019F000A06A20F4005040F48050A062A06A00F475
:101A0000805020B1E06A20F00600E06201E0002092
:101A1000E06200BF002084F8240000BFC01E2168DF
:101A200008602068806800F46020B0F5602F16D14F
:101A300012492068884208D11148006800F47020DB
:101A400008B9012002E0002000E0012038B1206840
:101A5000806840F4A000216888600CE006E02068FF
:101A6000806840F480102168886004E000BF002096
:101A700084F8240000BF284675E7000000280140D4
:101A80000424014070B50446002594F82100022882
:101A900003D00420A0630125C1E02068006820F085
:101AA0000E00216808602068006820F001002168AD
:101AB00008605C492068884252D95A4978392068C0
:101AC000884201D1012047E05649643920688842A4
:101AD00001D1102040E0534950392068884201D19B
:101AE000801539E04F493C392068884201D1801483
:101AF00032E04C4928392068884202D14FF48030C6
:101B00002AE0484914392068884202D14FF48010F5
:101B100022E044492068884201D140041CE0424947
:101B20002068884201D1012016E03F491431206825
:101B3000884201D110200FE03B49283120688842BB
:101B400001D1801508E038493C312068884201D134
:101B5000801401E04FF480303349091F086051E0E0
:101B6000304978392068884201D1012047E02D4969
:101B700064392068884201D1102040E02949503959
:101B80002068884201D1801539E026493C39206817
:101B9000884201D1801432E02249283920688842E5
:101BA00002D14FF480302AE01E491439206888425F
:101BB00002D14FF4801022E01A492068884201D1F6
:101BC00040041CE018492068884201D1012016E039
:101BD000154914312068884201D110200FE01249C4
:101BE00028312068884201D1801508E00E493C3137
:101BF0002068884201D1801401E04FF48030094907
:101C000080394860012084F8210000BF002084F85A
:101C1000200000BF606B10B12046616B88472846EA
:101C200070BD000080000240080402402DE9F84722
:101C3000024600239C467BE14FF0010808FA03F4BA
:101C4000D1F8008008EA0400A0427DD1DFF8F4A2B8
:101C5000D1F80480A8EB0A09D0453AD014DCB8F1D9
:101C6000030F50D009DCB8F1000F31D0B8F1010FEB
:101C70001CD0B8F1020F49D120E0B8F1110F18D0F3
:101C8000B8F1120F42D11EE0B9F5881F25D006DC4D
:101C9000B9F5803F20D0B9F5801F37D11AE0B9F5EA
:101CA000001F18D0B9F5041F30D117E0D1F80CC0CF
:101CB0002DE0D1F80C8008F1040C28E0D1F80C805C
:101CC00008F1080C23E0D1F80C8008F10C0C1EE0A0
:101CD00000BF00BF00BF00BF00BF00BFD1F8088039
:101CE000B8F1000F02D14FF0040C0BE0D1F80880DE
:101CF000B8F1010F03D14FF0080C146102E04FF06E
:101D0000080C546103E04FF0000C00E000BF00BF7E
:101D1000FF2801D8904601E002F104084646FF285A
:101D200002D84FEA830803E0A3F108084FEA8808C5
:101D30004746D6F800804FF00F0909FA07F928EA5C
:101D400009080CFA07F900E07AE048EA0908C6F841
:101D50000080D1F8048008F08058B8F1805F6FD11E
:101D600000BFDFF8E481D8F8188048F00108DFF8F8
:101D7000D891C9F81880C846D8F8188008F001082A
:101D8000CDF8008000BF00BF4FEAB9384FEA930991
:101D900058F829504FEA83784FEA18794FF00F0826
:101DA00008FA09F825EA0805DFF8A081424502D1C2
:101DB0004FF0000824E0DFF89881424502D14FF04F
:101DC00001081DE0DFF88C81424502D14FF0020886
:101DD00016E0DFF88481424502D14FF003080FE09E
:101DE000DFF87881424502D14FF0040808E0DFF8BF
:101DF0007081424502D14FF0050801E04FF006081E
:101E00004FEA83794FEA197908FA09F848EA050593
:101E1000DFF850814FEA930948F82950D1F804803F
:101E200008F48038B8F5803F0BD1DFF83C81D8F852
:101E3000008048EA0008DFF83091C9F800800AE025
:101E400075E0DFF82481D8F8008028EA0008DFF880
:101E50001891C9F80080D1F8048008F40038B8F56A
:101E6000003F0ED1DFF8008108F10408D8F80080A7
:101E700048EA0008DFF8F09009F10409C9F8008089
:101E80000DE0DFF8E48008F10408D8F8008028EAC3
:101E90000008DFF8D49009F10409C9F80080D1F8EE
:101EA000048008F48018B8F5801F0ED1DFF8B880E0
:101EB00008F10808D8F8008048EA0008DFF8A89080
:101EC00009F10809C9F800800DE0DFF89C8008F1ED
:101ED0000808D8F8008028EA0008DFF88C9009F19B
:101EE0000809C9F80080D1F8048008F40018B8F592
:101EF000001F0ED1DFF8708008F10C08D8F80080C0
:101F000048EA0008DFF8609009F10C09C9F8008080
:101F10000DE0DFF8548008F10C08D8F8008028EABA
:101F20000008DFF8449009F10C09C9F800805B1C37
:101F3000D1F8008028FA03F8B8F1000F7FF47CAEE6
:101F4000BDE8F887000011100010024000080140B1
:101F5000000C014000100140001401400018014035
:101F6000001C014008000140000401400AB1016169
:101F700001E00B04036170470148006870470000EE
:101F80000400002003480068034909780844014917
:101F900008607047040000200C00002010B50848BD
:101FA000006840F0100006490860052000F080F845
:101FB0000F2000F007F800F02BF8002010BD000003
:101FC0000020024070B504460E4800784FF47A7144
:101FD000B1FBF0F00C490968B1FBF0F5284600F0C0
:101FE00013FD08B1012070BD102C07D2002221463C
:101FF000501E00F01EF80548046001E00120F2E7E1
:102000000020F0E70C000020000000200800002065
:10201000704701460846002809DB00F01F03012233
:102020009A4043099B0003F1E023C3F8002100BF5D
:1020300070472DE9F05F80460D461646002701F0F7
:1020400009FC074639462A46334601F00700C0F12D
:10205000070ABAF1040F02D94FF0040A01E0C0F1F7
:10206000070AD14600F1040ABAF1070F02D24FF075
:10207000000A01E0A0F1030AD4464FF0010A0AFA6F
:1020800009FAAAF1010A0AEA020A0AFA0CFA4FF05E
:10209000010B0BFA0CFBABF1010B0BEA030B4AEA49
:1020A0000B042146404601F0DDFBBDE8F09F000037
:1020B00000BF00F00702064B19684FF6FF031940F6
:1020C000044B0B4343EA0221014B196000BF7047E8
:1020D0000CED00E00000FA052DE9F04385B006465E
:1020E00042A30FCB01AC0FC444A0006800904FF096
:1020F0000008002500270024A146042E36D004DC69
:10210000012E3BD0022E6BD15FE0082E32D0102E74
:1021100066D13B484468006800F0807000B301A8B5
:10212000C4F38341475C04F4803070B134484068A4
:10213000C0F340401DF8008004F4803040B13148C5
:10214000B0FBF8F000FB07F502E02F4807FB00F5B5
:102150002B48406800F48000B0F5800F01D1A946FB
:1021600003E068000321B0FBF1F93AE000F0D0F998
:10217000814636E000F0CCF9814632E02048046A1E
:1021800004F44070B0F5807F05D104F0020010B176
:102190004FF4004918E004F44070B0F5007F07D117
:1021A0001748406A00F0020010B149F640490BE0C0
:1021B00004F44070B0F5407F06D11148006800F487
:1021C000003008B14FF224490BE000F091F90C49BE
:1021D0004968C1F38131491C4900B0FBF1F900E0C5
:1021E00000BF00BF484605B0BDE8F0830203040508
:1021F000060708090A0B0C0D0E0F10100102000053
:102200000010024000127A0000093D00F8B50446B3
:10221000002700260025207800F00100002869D062
:102220004248C06900F0805070B900BF3F48C069A3
:1022300040F080503D49C8610846C06900F08050B8
:10224000009000BF00BF01273948006800F480708B
:10225000B0B93748006840F4807035490860FFF72E
:102260008BFE064606E0FFF787FE801B642801D937
:102270000320F8BD2E48006800F480700028F2D0DA
:102280002A48006A00F440752DB3A08800F440701D
:10229000A84220D02548006A20F440750120254935
:1022A0000860002008602148056205F0010090B137
:1022B000FFF762FE064608E0FFF75EFE801B41F274
:1022C0008831884201D90320D3E71848006A00F01A
:1022D00002000028F0D01548006A20F440706168C0
:1022E000084312490862012F04D10846C06920F052
:1022F0008050C861207800F00200022807D10B4806
:10230000406820F44040A1680843084948602078AC
:1023100000F01000102807D10448406820F4800025
:1023200061690843014948600020A2E700100240AB
:10233000007000404004424270B504460D460CB99E
:10234000012070BD5A48006800F00700A8420ED274
:102350005748006820F007002843554908600846A0
:10236000006800F00700A84201D00120E9E72078CA
:1023700000F0020002281DD1207800F0040004289B
:1023800005D14C48406840F4E0604A4948602078F4
:1023900000F00800082805D14648406840F4605025
:1023A000444948604348406820F0F000A168084371
:1023B00040494860207800F0010078B36068012847
:1023C00006D13C48006800F4003090B90120B8E71D
:1023D0006068022806D13748006800F0007040B9F4
:1023E0000120AEE73348006800F0020008B9012080
:1023F000A7E73048406820F00300616808432D4992
:102400004860FFF7B9FD064609E0FFF7B5FD801B00
:1024100041F28831884202D9032092E707E025483B
:10242000406800F00C006168B0EB810FEDD12048EE
:10243000006800F00700A8420ED91D48006820F08F
:10244000070028431A4908600846006800F00700A2
:10245000A84201D0012074E7207800F0040004288D
:1024600007D11448406820F4E060E168084311494E
:102470004860207800F00800082808D10D4840681E
:1024800020F46050216940EAC1000A49486000F028
:102490003FF808494968C1F30311074A515CC84035
:1024A0000649086006480068FFF78CFD002048E7F1
:1024B00000200240001002401A4A000800000020DC
:1024C000080000200148006870470000000000205C
:1024D00000B5FFF7F7FF04494968C1F30221034A39
:1024E000515CC84000BD0000001002402A4A0008AC
:1024F00000B5FFF7E7FF04494968C1F3C221034A69
:10250000515CC84000BD0000001002402A4A00088B
:10251000F0B585B00FF26C0C9CE8E01001A8A0E8C3
:10252000E0101CA52D680095002100220023002446
:102530000020194D696801F00C05F5B1042D02D099
:10254000082D19D101E0154819E001ADC1F383460A
:10255000AC5D01F4803555B10F4D6D68C5F3404554
:102560001DF805200D4D6543B5FBF2F302E00C4D5F
:1025700004FB05F3184602E000BF084800BF00BF97
:1025800005B0F0BD02030405060708090A0B0C0D8F
:102590000E0F1010010200000010024000127A001D
:1025A00000093D00F8B504460CB90120F8BD2078BB
:1025B00000F00100002878D0F848406800F00C00D6
:1025C00004280CD0F548406800F00C00082811D110
:1025D000F248406800F48030B0F5803F0AD1EF48FF
:1025E000006800F4003000285FD0606800285CD1EB
:1025F0000120DBE700BF6068B0F5803F06D1E74807
:10260000006840F48030E549086028E0606858B907
:10261000E248006820F48030E0490860084600681D
:1026200020F4802008601AE06068B0F5A02F0BD17C
:10263000DA48006840F48020D849086008460068FD
:1026400040F4803008600AE0D448006820F480300C
:10265000D24908600846006820F48020086000BF66
:10266000606888B1FFF788FC054606E0FFF784FC48
:10267000401B642801D9032098E7C848006800F48B
:1026800000300028F2D010E0FFF776FC054606E0A7
:10269000FFF772FC401B642801D9032086E7BF487E
:1026A000006800F400300028F2D1207800F0020029
:1026B000022857D1B948406800F00C0050B1B74823
:1026C000406800F00C00082818D1B448406800F4B5
:1026D000803098B9B148006800F0020020B120694C
:1026E000012801D0012061E7AC48006820F0F80023
:1026F000616940EAC100A949086033E02069E8B196
:102700000120A7490860FFF737FC054606E0FFF700
:1027100033FC401B022801D9032047E79F4800688B
:1027200000F002000028F2D09C48006820F0F80079
:10273000616940EAC1009949086013E000209849A6
:102740000860FFF719FC054606E0FFF715FC401B83
:10275000022801D9032029E79048006800F0020010
:102760000028F2D1207800F0080008282DD1A069B7
:10277000B8B101208B490860FFF7FEFB054606E073
:10278000FFF7FAFB401B022801D903200EE783481C
:10279000406A00F002000028F2D0012000F086FC20
:1027A00013E000207F490860FFF7E6FB054606E0DE
:1027B000FFF7E2FB401B022801D90320F6E6774829
:1027C000406A00F002000028F2D1207800F00400F6
:1027D000042873D100277148C06900F0805070B997
:1027E00000BF6E48C06940F080506C49C86108461F
:1027F000C06900F08050009000BF00BF01276A4808
:10280000006800F48070B0B96748006840F48070D8
:1028100065490860FFF7B0FB054606E0FFF7ACFB33
:10282000401B642801D90320C0E65F48006800F41B
:1028300080700028F2D000BFE068012806D1574818
:10284000006A40F001005549086227E0E06858B985
:102850005248006A20F00100504908620846006AA8
:1028600020F00400086219E0E06805280BD14B480D
:10287000006A40F00400494908620846006A40F0D6
:10288000010008620AE04548006A20F0010043495F
:1028900008620846006A20F00400086200BFE06891
:1028A000A0B1FFF769FB054609E0FFF765FB401B98
:1028B00041F28831884202D9032077E622E0374886
:1028C000006A00F002000028EFD012E0FFF754FB8E
:1028D000054608E0FFF750FB401B41F28831884273
:1028E00001D9032062E62D48006A00F002000028AA
:1028F000F0D1012F05D12948C06920F08050274927
:10290000C86100BFE069C8B32448406800F00C000B
:10291000082860D0E069022848D1002020490866D4
:10292000FFF72AFB054606E0FFF726FB401B0228BF
:1029300001D903203AE61948006800F00070002829
:10294000F2D1206AB0F5803F07D11448406820F4E6
:102950000030A168084311494860D4E908010843E0
:102960000E49496821F4741108430C49486001205C
:102970000B490866FFF700FB054607E03DE0FFF75F
:10298000FBFA401B022801D903200FE60348006828
:1029900000F000700028F2D02FE00000001002408C
:1029A000000042428004424200700040002014496E
:1029B0000866FFF7E1FA054606E0FFF7DDFA401B7F
:1029C000022801D90320F1E50E48006800F00070EC
:1029D0000028F2D111E0E069012800D1E6E50948BC
:1029E000466806F48031206A814204D106F47011F1
:1029F000606A814201D00120D8E50020D6E50000C0
:102A0000000042420010024070B504462546681E90
:102A1000B0F1807F01D301200FE0681E4FF0E0216C
:102A200048610F214FF0FF3000F01CFF00204FF0F5
:102A3000E021886107200861002070BD70B5044660
:102A40000D46164600BF94F83C00012801D1022033
:102A500070BD012084F83C0000BF022084F83D00D6
:102A600036B1042E1BD0082E31D00C2E5ED145E09D
:102A70002946206800F054FC2068806940F0080076
:102A8000216888612068806920F0040021688861DD
:102A900020688069296908432168886147E02946E0
:102AA000206800F075FC2068806940F400602168AF
:102AB00088612068806920F48060216888612068CE
:102AC0008069296940EA0120216888612FE0294650
:102AD000206800F09BFC2068C06940F00800216875
:102AE000C8612068C06920F004002168C8612068BE
:102AF000C069296908432168C86118E0294620682F
:102B000000F0C0FC2068C06940F400602168C86122
:102B10002068C06920F480602168C8612068C069AD
:102B2000296940EA01202168C86100E000BF00BFB8
:102B3000012084F83D0000BF002084F83C0000BF65
:102B400000BF85E710B504460CB9012010BD94F80C
:102B50003D0028B9002084F83C00204600F00CF825
:102B6000022084F83D00211D206800F043FB012075
:102B700084F83D000020E9E710B586B004461C4902
:102B80002068884232D100BF1A48C06940F0020074
:102B90001849C8610846C06900F00200019000BFF2
:102BA00000BF00BF1449486820F4406040F0E06076
:102BB00040F40060486000BF00BF0E48806940F0EC
:102BC00008000C4988610846806900F008000190FF
:102BD00000BF00BF2020029002200390012004903B
:102BE0000320059002A90548FFF720F806B010BDA4
:102BF000000400400010024000000140000C0140B1
:102C000070B504460E4601223146206800F040FBB4
:102C10000F492068884203D00E492068884201D1BC
:102C2000012000E0002028B12068406C40F4004002
:102C3000216848642068806800F00705062D05D0EB
:102C40002068006840F0010021680860002070BD25
:102C5000002C01400034014070470146002200234F
:102C600091F8392091F83A3042EA030070470000A9
:102C70002DE9F0470446206805682068C66820688A
:102C800047694FF00008C14605F00F08B8F1000F82
:102C90000AD105F0200038B106F0200020B120460E
:102CA00000F04AFCBDE8F087B8F1000F6DD007F0E6
:102CB000010018B906F49070002866D005F00100F4
:102CC00030B106F4807018B1E06B40F00100E063B1
:102CD00005F0040030B107F0010018B1E06B40F0DE
:102CE0000200E06305F0020030B107F0010018B106
:102CF000E06B40F00400E06305F0080030B107F03D
:102D0000010018B1E06B40F00800E063E06B68B3CD
:102D100005F0200028B106F0200010B1204600F098
:102D20000BFC20684069C0F38019E06B00F00800DC
:102D300010B9B9F1000F22D0204600F0DDFB206869
:102D4000406900F04000B0B12068406920F04000C8
:102D500021684861606B50B11748616B4863606BD4
:102D6000FEF790FE10B1606B416B88470CE0204687
:102D7000FFF772FF08E02046FFF76EFF04E02046F1
:102D8000FFF76AFF0020E0638CE705F0800030B1B8
:102D900006F0800018B1204600F0F2FC82E705F052
:102DA000400030B106F0400018B1204600F0B4FBFE
:102DB00078E700BF76E70000E534000810B5044668
:102DC0000CB9012010BDA06900B100E000BF94F86B
:102DD000390028B9002084F83800204600F028F88F
:102DE000242084F839002068C06820F4005021684D
:102DF000C860204600F0F4FB2068006920F4904091
:102E0000216808612068406920F02A002168486133
:102E10002068C06840F400502168C8600020E0636A
:102E2000202084F8390084F83A000020CAE7000026
:102E300010B586B0044625492068884244D100BFB9
:102E40002348806940F00400214988610846806970
:102E500000F00400019000BF00BF00BF0846806979
:102E600040F4804088610846806900F48040019009
:102E700000BF00BF00BF0846806940F001008861C4
:102E80000846806900F00100019000BF00BF4815AE
:102E9000029002200390012004900320059002A9D3
:102EA0000C48FEF7C3FE4FF48060029000200390B0
:102EB00002A90848FEF7BAFE2520FFF7AAF8032268
:102EC00011462520FFF7B5F806B010BD00380140C7
:102ED000001002400008014010B5034693F83A0084
:102EE00020282FD101B10AB9012010BD00BF93F8ED
:102EF0003800012801D10220F7E7012083F83800CB
:102F000000BF99629A85DA850020D863222083F871
:102F10003A0000BF002083F8380000BF1868C0687E
:102F200040F480701C68E0601868406940F001005F
:102F30001C6860611868C06840F020001C68E06090
:102F40000020D2E70220D0E71D4A0168914236D125
:102F50001C49098801F4004189BB1A49098801F418
:102F6000804171B1184909780A2903D00021154A16
:102F7000118024E01349098841F40041114A11806D
:102F80001DE0114909780D2906D10E49098841F43F
:102F900080410C4A118012E00B490978094A1288D5
:102FA000C2F30D02094B995406490988491C054A88
:102FB000118011460988C72901DD00211180704761
:102FC00000380140180000201A0000207C0000207A
:102FD000704700BFFEE7000000B585B000BF1B488A
:102FE000806940F00800194988610846806900F04E
:102FF0000800009000BF00BF00BF0846806940F095
:10300000400088610846806900F04000009000BFE1
:1030100000BF202001900120029003900320049023
:1030200001A90B48FEF702FE2020019001A90948E2
:10303000FEF7FCFD012220210548FEF797FF012243
:1030400020210448FEF792FF05B000BD00100240A9
:10305000000C01400018014000B587B0022001902B
:103060008003039001A8FFF7D1F80C480C490860D1
:103070000020486000210A4881600121017301613C
:103080000021017581614FF46021C161FEF7CCFA26
:103090000348FEF793F907B000BD0000002401408B
:1030A0008401002000BFFEE77047704708B508495B
:1030B0000968C9084FF47A72B1FBF2F141430091FB
:1030C00000BF00BF00994A1E00920029F9D108BD37
:1030D00000000020704730B58FB005460024012065
:1030E0000590000406900020079002200C90C10378
:1030F0000D910E9505A8FFF755FA04460CB100BFD7
:10310000FEE70F20009002200190002002904FF473
:10311000806003900020049002216846FFF70CF9BC
:1031200004460CB100BFFEE70FB030BD10B5FEF78E
:1031300029FF10BD00B58FB0282105A8FDF707F9BC
:1031400014216846FDF703F901200590000406905C
:10315000002007900120099002200C90C1030D91DE
:103160004FF4E0110E9105A8FFF71CFA08B1FEF725
:10317000E7F80F20009002200190002002904FF409
:10318000806003900020049002216846FFF7D4F885
:1031900008B1FEF7D5F80FB000BD00001148006877
:1031A00040F001000F490860084640680E49084099
:1031B0000C494860084600680C4908400949086005
:1031C0000846006820F4802008600846406820F423
:1031D000FE0048604FF41F008860C803044908607F
:1031E00070470000001002400000FFF8FFFFF6FEED
:1031F00008ED00E010B50268204B98420ED0204B3D
:1032000098420BD0B0F1804F08D01E4B984205D0A9
:103210001D4B984202D01D4B984203D122F0700200
:103220004B681A43154B98420ED0154B98420BD061
:10323000B0F1804F08D0134B984205D0124B984202
:1032400002D0124B984203D122F44072CB681A4349
:1032500022F080034C6943EA040202608B68C36277
:103260000B688362054B984202D0054B984201D10E
:103270000B6903630123436110BD0000002C014072
:10328000003401400004004000080040000C0040F1
:1032900030B501F01F05012404FA05F3046A9C43CC
:1032A0000462046A01F01F0502FA05F52C4304626A
:1032B00030BD00002DE9F047044689461348144903
:1032C00008600846C0F8049000218160C460016174
:1032D000FFF738FC60200F490860204600F013FF1C
:1032E00007460D4A0D4B00F021FF054600F0DEFEBB
:1032F000084948600220886004220548FFF79EFBC9
:1033000004210348FFF77CFCBDE8F087000400407F
:10331000B4010020F40100207B14AE47E17A843F21
:1033200030B5056A25F001050562026A43688469C3
:1033300024F0700424F003040D682C4322F00202F0
:103340008D682A43104DA84200D103E00F4DA842DA
:1033500006D100BF22F00802CD682A4322F0040201
:10336000094DA84202D0094DA84207D123F4807329
:1033700023F400734D692B438D692B4343608461B3
:103380004D684563026230BD002C014000340140AD
:1033900030B5056A25F010050562026A4368846944
:1033A00024F4E04424F440740D6844EA052422F037
:1033B00020028D6842EA0512124DA84200D103E0B6
:1033C000114DA84207D100BF22F08002CD6842EA29
:1033D000051222F040020B4DA84202D00A4DA8422D
:1033E00009D123F4806323F400634D6943EA850324
:1033F0008D6943EA8503436084614D688563026299
:1034000030BD0000002C01400034014030B5056A99
:1034100025F480750562026A4368C46924F070046B
:1034200024F003040D682C4322F400728D6842EAF4
:103430000522124DA84200D103E0114DA84207D148
:1034400000BF22F40062CD6842EA052222F48062C5
:103450000A4DA84202D00A4DA84209D123F4805354
:1034600023F400534D6943EA05138D6943EA0513BC
:103470004360C4614D68C563026230BD002C0140E9
:103480000034014030B5056A25F480550562036AB1
:103490004468C26922F4E04222F440720D6842EAB4
:1034A000052223F400538D6843EA0533084DA842F2
:1034B00002D0084DA84204D124F480444D6944EA66
:1034C00085144460C2614D680564036230BD00002C
:1034D000002C0140003401400149086070470000A1
:1034E0003804004070B505466C6A0020E085E08431
:1034F0002046FFF7B1FB70BD0168C96821F49071E7
:103500000268D1600168496921F0010102685161D6
:10351000202180F83A10704710B504462068C06832
:1035200020F040002168C860202084F8390020463F
:10353000FFF74EFD002010BD70B5044694F83A0028
:1035400022284AD1A068B0F5805F13D1A56A20690E
:1035500040B920684068C0F308002880A06A801C39
:10356000A06219E020684068C0B22880A06A401CB0
:10357000A06211E0206938B920684068C1B2A26A2F
:10358000501CA062117007E02068406800F07F01C5
:10359000A26A501CA0621170E08D401E80B2E085CE
:1035A000C8B92068C06820F020002168C860206881
:1035B000C06820F480702168C8602068406920F0ED
:1035C000010021684861202084F83A002046FFF776
:1035D000BBFC002070BD0020FCE70220FAE70000E1
:1035E00070B504462168096921F44051E26811432D
:1035F000226811612269A1681143626941EA0205EA
:103600002168C96841F20C62914329432268D16064
:103610002168496921F44071A2691143226851610E
:10362000564A2168914254D1FEF762FF00EBC00177
:1036300001EB001162689200B1FBF2F100EBC002F5
:1036400002EB001263689B00B2FBF3F26423B2FB4F
:10365000F3F202EBC20303EB0212A1EB820132226E
:1036600002EB01116422B1FBF2F101F0F00100EB79
:10367000C00202EB001263689B00B2FBF3F264230A
:10368000B2FBF3F201EB021200EBC00101EB0011FF
:1036900063689B00B1FBF3F100EBC00303EB001385
:1036A0006668B600B3FBF6F36426B3FBF6F303EBF0
:1036B000C30606EB0313A1EB8301322303EB0111D5
:1036C0006423B1FBF3F101F00F0111442268916012
:1036D00053E0FEF7FDFE00EBC00101EB0011626854
:1036E0009200B1FBF2F100EBC00202EB0012636842
:1036F0009B00B2FBF3F26423B2FBF3F202EBC203D2
:1037000003EB0212A1EB8201322202EB01116422CF
:10371000B1FBF2F101F0F00100EBC00202EB00128C
:1037200063689B00B2FBF3F26423B2FBF3F201EB9C
:10373000021200EBC00101EB001163689B00B1FBBA
:10374000F3F100EBC00303EB00136668B600B3FBB4
:10375000F6F36426B3FBF6F303EBC30606EB0313A1
:10376000A1EB8301322303EB01116423B1FBF3F1DD
:1037700001F00F0111442268916070BD00380140D2
:10378000014691F8390021282CD18868B0F5805F76
:103790000FD10A6A1088C0F308000B6858600869E6
:1037A00018B9086A801C086209E0086A401C0862AF
:1037B00005E00B6A581C086218780B685860C88CC2
:1037C000401E80B2C88458B90868C06820F08000E4
:1037D0000B68D8600868C06840F040000B68D8608B
:1037E000002070470220FCE710B500240C48FFF7CA
:1037F0003FFA00BF01E0641C00BF0948FFF72DFA43
:103800002028F8D100BF002401E0641C00BF012281
:1038100004490348FFF760FB0028F6D100BF10BD44
:10382000440100201A00002000BFFEE7490050EAD2
:10383000C12018BF04204A0D18BF40F0010040F21B
:10384000FF72B2EB515F08BF40F00200012808BFD1
:103850000520704702480068C0F30220704700004E
:103860000CED00E010B5002804DB0A07130E054A32
:10387000135406E00A07140E034A00F00F031B1F3F
:10388000D45410BD00E400E018ED00E030380A2800
:1038900001D2012070470020704700BF704730B54B
:1038A0000446002504E04FF47A7000F005F86D1C22
:1038B000A542F8D330BD000070B5034600224FF09A
:1038C000E02675690D4E366803FB06F44FF0E026DE
:1038D000B16910E04FF0E026B06988420BD0884211
:1038E00002D20E1A324402E02E1A0E44324401462D
:1038F000A24200D300E0EDE700BF70BD1000002041
:1039000000BF054A126802F04002002AF9D0C2B294
:10391000014B1B1D1A607047003801408AB000201F
:103920000990FEF73BFB4FF4E010FFF7D4FBFFF7E5
:1039300001FCFFF751FB4FF4E13000F053F9032194
:1039400040F2E730FFF7B6FCFFF786FB394800F09E
:103950000DF900203849394A4FF4FA73CDE90232A3
:10396000CDE9041058000021CDE900103148344B56
:103970004FF4FA724FF44871446DA04731A0FCF740
:1039800053FC55E0FEF7F8FA0999401AB0F5FA7FB2
:1039900005D9FEF7F1FA09902FA0FCF745FC0A21A2
:1039A0000120FDF7F3FC0790079800F079FE0690E0
:1039B00000F0A4FD80464FF066322A4B00F0B6FBC3
:1039C00006460022284B00F019FA044600F03CF9A4
:1039D0008346584600F092FD06460022234B00F035
:1039E000A3FC04460022224B00F0A0FB0022214B46
:1039F000CDE9040100F002FA804600F025F9824684
:103A0000504600F07BFD044622460B461AA0FCF708
:103A10000BFC08485146C26D90470890089800F08A
:103A200007FE0446FFF758FD4FF4FA70FFF737FF23
:103A3000A8E700001C000020000020410000C84250
:103A40000000A0415B2A5DB3F5CABCBBAFCDEAB1B3
:103A5000CFA1A30D0A00000052554E4E494E4721FA
:103A60000D0A000066660A400000B0400000E03F1A
:103A70000000104000003E400D0AC6F8D1B93A25BA
:103A80002E3366206B70610D0A00000070B504468D
:103A90000D46A06CE064FEF76FFAA06494F848004D
:103AA00094F84C10401A84F850006561A069E061F8
:103AB000E06A20636169206800F038FFA06100219E
:103AC000A06900F001FF01D2A06902E0A06980F0C6
:103AD00000400646E16B00F0F7FE45D2A169A06800
:103AE00000F026FE2062A169E06800F021FE064693
:103AF000616A00F02FFD6062D4E9060100F016FF54
:103B00000646216900F014FEA062A16B606A00F015
:103B1000DBFE01D2A06B6062A06B80F000463046F5
:103B2000616A00F0D1FE03D2A06B80F000406062B9
:103B3000D4E9080100F00EFD0646A16A00F00AFD76
:103B4000E062616BE06A00F0BFFE01D2606BE06290
:103B5000606B80F000463046E16A00F0B5FE03D2AB
:103B6000606B80F00040E062E06A70BD034941652F
:103B7000034981650349C16570470000893B00081E
:103B8000DB3B00088D3A00082DE9F05F04460D4646
:103B900016461F46DDE90DABDDE90A89404600F017
:103BA0007FFD2064E763304600F07AFDA06328467D
:103BB00000F076FD6063484600F05AFD60640C98A2
:103BC00000F056FD2060C4F808A0C4F80CB00F98AF
:103BD00020610020E062BDE8F09F8160C260036167
:103BE0007047000010B5044609480A4908600846B5
:103BF000446000218160C160016181610C214161EB
:103C0000FFF7DCF8012204490248FFF765F910BD0F
:103C100000380140440100201A00002010B500299E
:103C20000AD00878002807D005487844FCF71EFF22
:103C3000002801D0002010BD0248784410BD0000CB
:103C4000BE0E0000B60E000021F00042A2F160524C
:103C5000B2F5801F01F0004328BFD2F17F6C0BD971
:103C60005FEA001C43EAC20242EB507018BF704783
:103C700028BF20F001007047B2F5801FBCBF184676
:103C800070474FEA410C1CF5001F02D2084600F0B5
:103C900016BE70B500F0F4FA00000089FFF7F6BF19
:103CA0004FF00040A0F580007047000010B591EA89
:103CB000030F48BF83F0004300F13E83841A71EB89
:103CC000030C05D2121943EB0C03001B61EB0C0132
:103CD000DFF824E14FEA1154A4EB135C1EEA430F12
:103CE00018BF9EEA445F73D023EA0E03DCF1200E76
:103CF00021EA045143F4801332D322FA0CFE10EB74
:103D00000E0023FA0CFE41EB0E01CCF1200E03FA5B
:103D10000EFE10EB0E0051F10001B1F5801FCCF149
:103D2000200E32D201EB045112FA0EF2BDE810401F
:103D300058BF7047401C38BF5FEA420218BF704747
:103D4000002814BF20F0010041F100014FEA4103B7
:103D500013F5001F38BF7047A1F1C04100F0DEBA73
:103D6000012A43EB0302ACF1200CDCF11F0E32BF41
:103D70004FF0000E23FA0CF310EB030041EB04515B
:103D8000B4EB115FD0D0A1EB045101F580114908CB
:103D90005FEA300001EB04510ED350F1000038BF50
:103DA00012FA0EFE08D1BDE81040C9E7401C38BF2A
:103DB0005FEA4202CAD1C3E7BDE810404FEA4103BF
:103DC00013F5001F38BF7047A1F1C04100F0A6BA3B
:103DD0009EEA445F08D011EA5E0FBDE8104004BFC0
:103DE00001F0004100207047BDE8104070B500F0C0
:103DF00047FA00BF64FBBE3E0000E0FF2DE9C04172
:103E000030B4DFF8A0C23CEA111418BF3CEA131426
:103E100000F0EC8081EA03051CEA111444EAD57431
:103E200018BF1CEA131500F0C780A4EB05044FF07F
:103E3000004545EAC12145EAC32341EA505143EA1E
:103E4000525304F17F74994204F500344FEAC020C4
:103E50004FEAC22208BF904200F09C804FEA1365EF
:103E60000FF24016765D4FEA134506FB05F7C7F1E2
:103E7000807706FB07F74FEAD737A7FB0368764240
:103E8000C8F58038A7FB06CE38BFA8F1010807FBAC
:103E900008E64FF0000EA6FB028CE6FB03CEDCF139
:103EA000000CCEF1004E38BFAEF1010EA6FB0C584F
:103EB0004FF000074FF00005E6FB0E87A1FB08C698
:103EC000A0FB07CE16EB0E0645F10005E1FB0765EA
:103ED00015F1E04E7EBFA4F580345FEA46066D41E1
:103EE00016F1800745F100054FEA17274FEA0666ED
:103EF00047EA0567A6F1DE46B6F1805F4FEA152571
:103F00001FD9384624F0010C05EBC471BCF1FE6FDB
:103F100001EB0C1102D8F0BCBDE8008124425CBF6B
:103F200001F5801E9EEAC47F02D4F0BCBDE800818A
:103F3000244238D4F0BCA1F1C041BDE8004100F0FA
:103F4000EDB94FEAD22242EA43524FEAD323A7FB0C
:103F500002864FEAD02040EA415007FB03661EEA82
:103F60000E0F4FEAD12105FB026658BFA6EB0056A3
:103F7000B6EB00564FEA520E4EEAC37E18EB0E0E19
:103F800056EB530EBDD518EB02085E417F1C55F170
:103F90000005B6E74FF480154FF000074FF000061C
:103FA0004FF00008ADE7F0BC4FF0000001F1C04158
:103FB00001F00041BDE8008111EA0C1F0CEA131565
:103FC00000D00CE013EA0C1F00F025804FF0000039
:103FD000F0BC81EA030101F00041BDE80081F0BCC2
:103FE000BDE8004181EA030100F098B9F0BCBDE8EA
:103FF000004170B500F044F9097EFC3E00F007B8BE
:1040000081EA03014FF0000001F00041704781EAAE
:10401000030100F083B9F0BCBDE800414FF000009F
:1040200021497047FFFDFBF9F7F5F4F2F0EEEDEBF7
:10403000E9E8E6E4E3E1E0DEDDDBDAD8D7D5D4D3A6
:10404000D1D0CFCDCCCBCAC8C7C6C5C4C2C1C0BFF2
:10405000BEBDBCBBBAB9B8B7B6B5B4B3B2B1B0AFF8
:10406000AEADACABAAA9A8A8A7A6A5A4A3A3A2A1DC
:10407000A09F9F9E9D9C9C9B9A9999989797969597
:1040800095949393929191908F8F8E8E8D8C8C8B33
:104090008B8A8989888887878685858484838382BB
:1040A000828181800000FF070000F87F4FEA1153F2
:1040B000A3F58063D3F11E03A8BFD3F1200C08DB66
:1040C0004FF0004242EAC12252EA505232FA03F063
:1040D000704709420BD4102BC4BF0020704703F572
:1040E000787CBCF1FF3F05D04FF0FF3070474FF0B8
:1040F0000000704770B500F0C3F800BF49922480FB
:1041000000207047F0E7B0FA80F310FA03F10AD00C
:10411000C3F11D0303F580634FEA41504FEA035298
:1041200002EBD12170474FF000007047DFF848C123
:1041300070B51CEA111E1EBF1CEA13159EEA0C0F77
:1041400095EA0C0F00F06F8081EA030423EA4C1318
:104150004EEAD47E21EA4C1141F4801143F48013DD
:10416000AE44A1FB024CA0FB0365AEF17F7E361985
:1041700055EB0C05A1FB034C4CF10003A0FB021C0A
:1041800016EB0C06654153F10003094218BF46F0D7
:10419000010613F4007F0BD14FEA03314FEA0530DB
:1041A000340341EA155140EA16506FF003020AE069
:1041B0004FEAC3214FEAC520F40241EA555140EAD3
:1041C00056506FF0020202EB2E4201EB025585EAD7
:1041D000CE710AD05FEA440C18BF24F0004450F1BD
:1041E000000041F1000120EAD47040F2FE7C6245FB
:1041F00000D270BDA84214BF4FF080444FF040443D
:10420000002E08BF0024BEF1806FA8BFA1F1C041FD
:10421000BDE8704080F282804FF0000001F1C041A3
:1042200001F0004170479EEA0C0F0CEA131518BF0D
:1042300095EA0C0F06D04FF0000081EA030E0EF055
:10424000004170BD00F01CF88900013E00F007B885
:1042500000F009B84FEA430C5FEA5C5C08D081EAE1
:10426000030100F05BB84FEA410C5FEA5C5CF6D1F9
:104270004FF00000014970470000FF070000F87F81
:104280000EF1020E2EF0030E5EF8046B364205D4DA
:10429000012A43EB030515F5001F12D8012841EB55
:1042A000010C1CF5001F0CD80ED14FEAD17C15F57E
:1042B000001F0CEB4C0C0CF1020C08BF4CEBD37C38
:1042C00004E04FF0080C01E04FEAD37C0CEB4C0506
:1042D00026FA05F606F00706B6F1040C06D20EEB38
:1042E000860CBDE870404CF0010C6047DFE80CF034
:1042F000090B02024FF000414FF00000A1F5002130
:1043000070BD19461046012851EB010418BFD4F5C1
:10431000001484BF002001F0004170BD0808A0F522
:1043200000114FEA3101704710B591EA030F48BF01
:1043300083F000433FF5C2AC841A71EB030C07D243
:1043400012198CF0004C43EB0C03001B61EB0C01C9
:10435000DFF8A4E14FEA1154A4EB135C1EEA430F0B
:1043600018BF9EEA445F00F0B08023EA6E03524219
:1043700021EA0451C3EB6E0338BF5B1EDCF1200E53
:1043800025D322FA0CFE10EB0E0043FA0CFE41EB93
:104390000E01CCF1200E03FA0EFE10EB0E0051F1CF
:1043A0000001CCF1200E29D412FA0EF201EB0451D7
:1043B000BDE8104058BF7047401C1CBFB2F1004F11
:1043C000704700280CBF491C20F00100704712EB19
:1043D000020E43EB030218BF4FF0010E4EEA4202F9
:1043E000ACF1200CDCF11E0E54D943FA0CFE10EB9C
:1043F0000E0051F1FF31CCF11E0ED5D50EF1010E9C
:1044000012FA0EFE404141EB010101EB445C5FEA10
:104410005C5C10D910EBDE7001EB045138BFBEF1CB
:10442000004FBDE8104018BF704700280CBF491C62
:1044300020F00100704730D24FEAD42C11F5001162
:1044400024F400641BD0B1FA81F20B3AA41AA41E22
:10445000D2F12003914030FA03F31943904001EB6D
:10446000CC71002C01EB0451BDE81040A8BF70478F
:1044700001F1C0414FF0000001F000417047B0FA77
:1044800080F310FA03F100D110BDE41A173C48057F
:10449000C90AE4E701EB045110BD491001EB0451D6
:1044A000BDE810404FEA300002E04FF000017047D5
:1044B0004A0008BF0042F8D0B2F5001F28BF70477D
:1044C00001F000414FF0000070479EEA445F07D0C2
:1044D00011EA5E0FBDE8104004BF002100207047C4
:1044E000BDE8104070B5FFF7CBFE00BF40DFF63EE1
:1044F00083F00041104670470000E0FF43004FEAA0
:10450000D30C4FEA3C0C43401FBF40070CF16051F5
:1045100013F0FE4F70471CF0006F03D100200CF029
:10452000004170470CF0004343EA507010B540EA78
:10453000CC0000F07EF900BF000000924FEA0001BD
:10454000FFF7ECBE4FF000414FF00000A1F5002155
:104550007047000090EA010F48BF81F0004100F170
:10456000EC81421A3CBF801A89184FEAD0524FF0B2
:104570007F4C1CEA410FA2EBD15318BF9CEA026F9B
:1045800000F03B804FF0004C4CEA00204CEA012147
:1045900021FA03FC10EB0C0C1ED202F1FF325FEA91
:1045A0001C2040EBC25038BF70471CF07F0F4FEA11
:1045B000400C18BFBCF17F4F38BF7047C3F12003D8
:1045C000994008BF20F00100BCF17F4F38BF704711
:1045D000A0F1C04000F073B94FEA3C00000A40EB84
:1045E000C25028BF1CF0FF0F4FEA400CE6D018BFA6
:1045F000BCF17F4F38BF7047EAE79CEA026F05D0F5
:1046000010EA5C0F08BF00F00040704710B500F0E2
:1046100010F900BF64FBBE3E401058BFC0F14040DF
:10462000491058BFC1F140418142EFF3008070470B
:10463000C10DD1F19E0206DB4FEA002343F0004397
:1046400023FA02F07047004207D54FEA4001B1F16A
:10465000FE4F02D24FF00000704710B500F0E9F8AD
:1046600049922480002070476FEA200070470000C4
:1046700010F0004148BF4042B0FA80F310FA03F254
:10468000C3F19D030BD051EAC35101EB1220530635
:1046900038BF704700F1010008BF20F001007047EB
:1046A000B0FA80F310FA03F2C3F19D030AD0D905E2
:1046B00001EB1220530638BF704700F1010008BF1C
:1046C00020F001007047000050EA010C00F1138057
:1046D0001CF5000F58BFBCF5000F01D4884270478D
:1046E00007D710F5000F58BF11F5000F15D48842F9
:1046F0007047894270471CF5000F04D5BCF5000FC8
:10470000F7D5814270474FF0807C1CEB400F38BFDB
:104710001CEB410F01D28142704710B500F089F8BF
:10472000922449004FF000504FF08051FFF774BFC2
:104730004FF47F0C1CEAD0121EBF1CEAD11392EA80
:104740000C0F93EA0C0F00F0478090EA010F48BF6E
:1047500042F480724FF0004C4CEA00204CEA0121F8
:1047600002EB0302A0FB0113A2F50002002918BF0F
:1047700043F001035B0028BF4FEA330342EB2242C0
:104780005FEA132C4CEBC2502EBFBCEB436FB2F56B
:104790007C0F70474FEA036CBCF1004F08BF20F05C
:1047A0000100B2F57C0F38BF70470BD582F0FF02D5
:1047B00012F5803FC8BF704700F1C040D8BF00F07D
:1047C0000040704700F5000C5FEA4C0C48BF704792
:1047D000B0F1C04000F073B890EA010F0CEAD113B9
:1047E00048BF42F48072624538BF634504D280EA14
:1047F000010000F00040704710B500F01AF800BF4B
:104800008900013E00F007B800F009B85FEA410CEA
:104810005FEA1C6C08D080EA010000F050B85FEA43
:10482000400C5FEA1C6CF6D14FF00040A0F5800010
:1048300070470EF1020E2EF0030E5EF8044B244278
:1048400004D44FEA4102B2F17F4F11D84FEA40033E
:10485000B3F17F4F0CD80ED14FEAD07CB2F17F4F2D
:104860000CEB4C0C0CF1020C08BF4CEBD17C04E0BF
:104870004FF0080C01E04FEAD17C0CEB4C0324FA1A
:1048800003F404F00704B4F1040C06D20EEB840C1C
:10489000BDE810404CF0010C6047DFE80CF0070861
:1048A00002024FF00040A0F5800010BD0846420013
:1048B00018BFD2F1807288BF00F0004010BDFF2108
:1048C00041EAD050C005704751EA000C00F1138056
:1048D0001CF5000F58BFBCF5000F01D48142704792
:1048E00007D711F5000F58BF10F5000F15D48142FE
:1048F0007047894270471CF5000F04D5BCF5000FC6
:10490000F7D5884270474FF0807C1CEB410F38BFD1
:104910001CEB400F01D28842704780EA010081EA17
:10492000000180EA0100FFF7F8BE000090EA010FE5
:1049300048BF81F000413FF514AE421A04D882F01E
:104940000042A0EB020011444FEAD0524FF07F4CDE
:104950001CEA410FA2EBD15318BF9CEA026F4AD068
:104960004FF0004C4CEA00204CEA012121FA03FCF4
:10497000B0EB0C0C0FD412F0FE0F36D05FEA4C00F7
:104980001DD5001240EBC25038BF70471CF03F0FDE
:1049900018BF70470BE0A2F101025FEA1C2040EB58
:1049A000C25038BF70471CF07F0F18BF7047C3F16B
:1049B0002003994014BF401E20F00100704780087A
:1049C0004FEA122308BF7047B0FA80FCA2EB0C023A
:1049D000CCF1280C60FA0CF093EA122F04BF00EB24
:1049E000C25070474FEAC3707047130A5FEADC1089
:1049F00008BF7047F6E79CEA026F04D010EA5C0F2C
:104A000008BF0020704710B5FFF713FF40DFF63EE8
:104A100081F000407047FBF79CBD000000000000E3
:104A2000000001020304060708090000000001025B
:104A30000304000002400000000000A0000000008D
:104A400005400000000000C8000000000C4000000D
:104A50000000409C00000000194000000020BCBE87
:104A60000000000034400000BFC91B8E000000049D
:104A7000B5400000504BCFD06607E2CF01000000E8
:104A80006C4100003E8251AADFEEA7340100000015
:104A9000D9420000DCB5A0E23A301F97FFFFFFFFCC
:104AA000B4450000FD25A0C8E9A3C14FFFFFFFFFEB
:104AB000FF3F00000000008000000000FF3F0000FA
:104AC0000000008000000000044B000800000020EF
:104AD0001C0000006C010008204B00081C00002096
:104AE00054080000880100081C000000430000007A
:104AF000F8FFFFFF0C0000000E0000000F00000098
:104B00002E0000000024F40000000000100000004F
:104B10000100000000000000000000000000000094
:0400000508000131BD
:00000001FF
